{
  "contractName": "LocalLottery",
  "abi": [
    {
      "inputs": [],
      "stateMutability": "nonpayable",
      "type": "constructor"
    },
    {
      "anonymous": false,
      "inputs": [
        {
          "indexed": true,
          "internalType": "address",
          "name": "winner",
          "type": "address"
        },
        {
          "indexed": false,
          "internalType": "uint256",
          "name": "amount",
          "type": "uint256"
        }
      ],
      "name": "LotteryWinner",
      "type": "event"
    },
    {
      "anonymous": false,
      "inputs": [
        {
          "indexed": true,
          "internalType": "address",
          "name": "player",
          "type": "address"
        }
      ],
      "name": "NewPlayerJoined",
      "type": "event"
    },
    {
      "inputs": [],
      "name": "lastWinner",
      "outputs": [
        {
          "internalType": "address",
          "name": "",
          "type": "address"
        }
      ],
      "stateMutability": "view",
      "type": "function",
      "constant": true
    },
    {
      "inputs": [],
      "name": "manager",
      "outputs": [
        {
          "internalType": "address",
          "name": "",
          "type": "address"
        }
      ],
      "stateMutability": "view",
      "type": "function",
      "constant": true
    },
    {
      "inputs": [
        {
          "internalType": "uint256",
          "name": "",
          "type": "uint256"
        }
      ],
      "name": "players",
      "outputs": [
        {
          "internalType": "address payable",
          "name": "",
          "type": "address"
        }
      ],
      "stateMutability": "view",
      "type": "function",
      "constant": true
    },
    {
      "inputs": [],
      "name": "enter",
      "outputs": [],
      "stateMutability": "payable",
      "type": "function",
      "payable": true
    },
    {
      "inputs": [],
      "name": "pickWinner",
      "outputs": [],
      "stateMutability": "nonpayable",
      "type": "function"
    },
    {
      "inputs": [],
      "name": "getPlayers",
      "outputs": [
        {
          "internalType": "address payable[]",
          "name": "",
          "type": "address[]"
        }
      ],
      "stateMutability": "view",
      "type": "function",
      "constant": true
    },
    {
      "inputs": [],
      "name": "getContractBalance",
      "outputs": [
        {
          "internalType": "uint256",
          "name": "",
          "type": "uint256"
        }
      ],
      "stateMutability": "view",
      "type": "function",
      "constant": true
    }
  ],
  "bytecode": "0x608060405234801561001057600080fd5b50336000806101000a81548173ffffffffffffffffffffffffffffffffffffffff021916908373ffffffffffffffffffffffffffffffffffffffff160217905550610c02806100606000396000f3fe6080604052600436106100705760003560e01c80638b5b9ccc1161004e5780638b5b9ccc146100e2578063e97dcb621461010d578063f71d96cb14610117578063fe1881841461015457610070565b8063481c6a75146100755780635d495aea146100a05780636f9fb98a146100b7575b600080fd5b34801561008157600080fd5b5061008a61017f565b6040516100979190610720565b60405180910390f35b3480156100ac57600080fd5b506100b56101a3565b005b3480156100c357600080fd5b506100cc610418565b6040516100d99190610754565b60405180910390f35b3480156100ee57600080fd5b506100f7610420565b604051610104919061083f565b60405180910390f35b6101156104ae565b005b34801561012357600080fd5b5061013e60048036038101906101399190610892565b610599565b60405161014b91906108ce565b60405180910390f35b34801561016057600080fd5b506101696105d8565b6040516101769190610720565b60405180910390f35b60008054906101000a900473ffffffffffffffffffffffffffffffffffffffff1681565b60008054906101000a900473ffffffffffffffffffffffffffffffffffffffff1673ffffffffffffffffffffffffffffffffffffffff163373ffffffffffffffffffffffffffffffffffffffff1614610231576040517f08c379a00000000000000000000000000000000000000000000000000000000081526004016102289061096c565b60405180910390fd5b600060018054905011610279576040517f08c379a0000000000000000000000000000000000000000000000000000000008152600401610270906109fe565b60405180910390fd5b60006001805490506102896105fe565b6102939190610a4d565b90506000600182815481106102ab576102aa610a7e565b5b9060005260206000200160009054906101000a900473ffffffffffffffffffffffffffffffffffffffff16905060004790508173ffffffffffffffffffffffffffffffffffffffff166108fc829081150290604051600060405180830381858888f19350505050158015610323573d6000803e3d6000fd5b5081600260006101000a81548173ffffffffffffffffffffffffffffffffffffffff021916908373ffffffffffffffffffffffffffffffffffffffff160217905550600067ffffffffffffffff8111156103805761037f610aad565b5b6040519080825280602002602001820160405280156103ae5781602001602082028036833780820191505090505b50600190805190602001906103c4929190610638565b508173ffffffffffffffffffffffffffffffffffffffff167f275eaacf9e506f9c68b251c2f97cf723c4fb9a3b94e42a1dfb581543c135f0c08260405161040b9190610754565b60405180910390a2505050565b600047905090565b606060018054806020026020016040519081016040528092919081815260200182805480156104a457602002820191906000526020600020905b8160009054906101000a900473ffffffffffffffffffffffffffffffffffffffff1673ffffffffffffffffffffffffffffffffffffffff168152602001906001019080831161045a575b5050505050905090565b600034116104f1576040517f08c379a00000000000000000000000000000000000000000000000000000000081526004016104e890610b4e565b60405180910390fd5b6001339080600181540180825580915050600190039060005260206000200160009091909190916101000a81548173ffffffffffffffffffffffffffffffffffffffff021916908373ffffffffffffffffffffffffffffffffffffffff1602179055503373ffffffffffffffffffffffffffffffffffffffff167f15a1fb0af26c50b492dd92a93f4b246035e185297ac44414bd358844bc5583d960405160405180910390a2565b600181815481106105a957600080fd5b906000526020600020016000915054906101000a900473ffffffffffffffffffffffffffffffffffffffff1681565b600260009054906101000a900473ffffffffffffffffffffffffffffffffffffffff1681565b6000444260018054905060405160200161061a93929190610b8f565b6040516020818303038152906040528051906020012060001c905090565b8280548282559060005260206000209081019282156106b1579160200282015b828111156106b05782518260006101000a81548173ffffffffffffffffffffffffffffffffffffffff021916908373ffffffffffffffffffffffffffffffffffffffff16021790555091602001919060010190610658565b5b5090506106be91906106c2565b5090565b5b808211156106db5760008160009055506001016106c3565b5090565b600073ffffffffffffffffffffffffffffffffffffffff82169050919050565b600061070a826106df565b9050919050565b61071a816106ff565b82525050565b60006020820190506107356000830184610711565b92915050565b6000819050919050565b61074e8161073b565b82525050565b60006020820190506107696000830184610745565b92915050565b600081519050919050565b600082825260208201905092915050565b6000819050602082019050919050565b60006107a6826106df565b9050919050565b6107b68161079b565b82525050565b60006107c883836107ad565b60208301905092915050565b6000602082019050919050565b60006107ec8261076f565b6107f6818561077a565b93506108018361078b565b8060005b8381101561083257815161081988826107bc565b9750610824836107d4565b925050600181019050610805565b5085935050505092915050565b6000602082019050818103600083015261085981846107e1565b905092915050565b600080fd5b61086f8161073b565b811461087a57600080fd5b50565b60008135905061088c81610866565b92915050565b6000602082840312156108a8576108a7610861565b5b60006108b68482850161087d565b91505092915050565b6108c88161079b565b82525050565b60006020820190506108e360008301846108bf565b92915050565b600082825260208201905092915050565b7f4f6e6c7920746865206d616e616765722063616e20706572666f726d2074686960008201527f7320616374696f6e2e0000000000000000000000000000000000000000000000602082015250565b60006109566029836108e9565b9150610961826108fa565b604082019050919050565b6000602082019050818103600083015261098581610949565b9050919050565b7f4e6f20706c61796572732070617274696369706174656420696e20746865206c60008201527f6f74746572792e00000000000000000000000000000000000000000000000000602082015250565b60006109e86027836108e9565b91506109f38261098c565b604082019050919050565b60006020820190508181036000830152610a17816109db565b9050919050565b7f4e487b7100000000000000000000000000000000000000000000000000000000600052601260045260246000fd5b6000610a588261073b565b9150610a638361073b565b925082610a7357610a72610a1e565b5b828206905092915050565b7f4e487b7100000000000000000000000000000000000000000000000000000000600052603260045260246000fd5b7f4e487b7100000000000000000000000000000000000000000000000000000000600052604160045260246000fd5b7f596f75206d7573742073656e6420736f6d6520657468657220746f20656e746560008201527f7220746865206c6f74746572792e000000000000000000000000000000000000602082015250565b6000610b38602e836108e9565b9150610b4382610adc565b604082019050919050565b60006020820190508181036000830152610b6781610b2b565b9050919050565b6000819050919050565b610b89610b848261073b565b610b6e565b82525050565b6000610b9b8286610b78565b602082019150610bab8285610b78565b602082019150610bbb8284610b78565b60208201915081905094935050505056fea2646970667358221220fbad9794b5d5cf398c1f656714a7c075eb7e8ac7162b0ff52cf63307a19481e464736f6c634300080d0033",
  "immutableReferences": {},
  "source": "// SPDX-License-Identifier: MIT\npragma solidity >=0.4.22 <0.9.0;\n\ncontract LocalLottery {\naddress public manager;\n    address payable[] public players;\n    address public lastWinner;\n\n    event NewPlayerJoined(address indexed player);\n    event LotteryWinner(address indexed winner, uint256 amount);\n\n    modifier onlyManager() {\n        require(msg.sender == manager, \"Only the manager can perform this action.\");\n        _;\n    }\n\n    constructor() {\n        manager = msg.sender;\n    }\n\n    function enter() public payable {\n        require(msg.value > 0, \"You must send some ether to enter the lottery.\");\n        players.push(payable(msg.sender));\n        emit NewPlayerJoined(msg.sender);\n    }\n\n    function getRandom() private view returns (uint256) {\n        return uint256(keccak256(abi.encodePacked(block.difficulty, block.timestamp, players.length)));\n    }\n\n    function pickWinner() public onlyManager {\n        require(players.length > 0, \"No players participated in the lottery.\");\n\n        uint256 index = getRandom() % players.length;\n        address payable winner = players[index];\n        uint256 contractBalance = address(this).balance;\n\n        winner.transfer(contractBalance);\n        lastWinner = winner;\n        players = new address payable[](0);\n\n        emit LotteryWinner(winner, contractBalance);\n    }\n\n    function getPlayers() public view returns (address payable[] memory) {\n        return players;\n    }\n\n    function getContractBalance() public view returns (uint256) {\n        return address(this).balance;\n    }\n}\n",
  "sourcePath": "D:\\Academic\\Part time\\Blockchain\\Project\\Project1\\contracts\\LocalLottery.sol",
  "compiler": {
    "name": "solc",
    "version": "0.8.13+commit.abaa5c0e.Emscripten.clang"
  },
  "schemaVersion": "3.4.14",
  "updatedAt": "2023-07-08T08:56:47.204Z",
  "networkType": "ethereum",
  "devdoc": {
    "kind": "dev",
    "methods": {},
    "version": 1
  },
  "userdoc": {
    "kind": "user",
    "methods": {},
    "version": 1
  }
}